{
  "contractName": "Crowdfunding",
  "abi": [
    {
      "inputs": [],
      "stateMutability": "nonpayable",
      "type": "constructor"
    },
    {
      "inputs": [],
      "name": "donate",
      "outputs": [],
      "stateMutability": "payable",
      "type": "function"
    },
    {
      "inputs": [
        {
          "internalType": "address payable",
          "name": "addrOut",
          "type": "address"
        },
        {
          "internalType": "uint256",
          "name": "_value",
          "type": "uint256"
        }
      ],
      "name": "transferOut",
      "outputs": [],
      "stateMutability": "payable",
      "type": "function"
    },
    {
      "inputs": [],
      "name": "getAllDonators",
      "outputs": [
        {
          "internalType": "address[]",
          "name": "",
          "type": "address[]"
        }
      ],
      "stateMutability": "view",
      "type": "function"
    },
    {
      "inputs": [
        {
          "internalType": "address",
          "name": "addr",
          "type": "address"
        }
      ],
      "name": "getDonationsOfAddess",
      "outputs": [
        {
          "internalType": "uint256",
          "name": "",
          "type": "uint256"
        }
      ],
      "stateMutability": "view",
      "type": "function"
    }
  ],
  "bytecode": "0x608060405234801561001057600080fd5b50336000806101000a81548173ffffffffffffffffffffffffffffffffffffffff021916908373ffffffffffffffffffffffffffffffffffffffff1602179055506108dc806100606000396000f3fe60806040526004361061003f5760003560e01c806314e8ffe21461004457806376890c581461008157806385aae3821461009d578063ed88c68e146100c8575b600080fd5b34801561005057600080fd5b5061006b6004803603810190610066919061049b565b6100d2565b60405161007891906104e1565b60405180910390f35b61009b60048036038101906100969190610566565b61011e565b005b3480156100a957600080fd5b506100b261025d565b6040516100bf9190610664565b60405180910390f35b6100d06102eb565b005b6000600260008373ffffffffffffffffffffffffffffffffffffffff1673ffffffffffffffffffffffffffffffffffffffff168152602001908152602001600020600001549050919050565b60008054906101000a900473ffffffffffffffffffffffffffffffffffffffff1673ffffffffffffffffffffffffffffffffffffffff163373ffffffffffffffffffffffffffffffffffffffff16146101ac576040517f08c379a00000000000000000000000000000000000000000000000000000000081526004016101a3906106e3565b60405180910390fd5b60008273ffffffffffffffffffffffffffffffffffffffff16826040516101d290610734565b60006040518083038185875af1925050503d806000811461020f576040519150601f19603f3d011682016040523d82523d6000602084013e610214565b606091505b5050905080610258576040517f08c379a000000000000000000000000000000000000000000000000000000000815260040161024f90610795565b60405180910390fd5b505050565b606060018054806020026020016040519081016040528092919081815260200182805480156102e157602002820191906000526020600020905b8160009054906101000a900473ffffffffffffffffffffffffffffffffffffffff1673ffffffffffffffffffffffffffffffffffffffff1681526020019060010190808311610297575b5050505050905090565b6000341161032e576040517f08c379a000000000000000000000000000000000000000000000000000000000815260040161032590610801565b60405180910390fd5b6000600260003373ffffffffffffffffffffffffffffffffffffffff1673ffffffffffffffffffffffffffffffffffffffff1681526020019081526020016000206000015414156103dd576001339080600181540180825580915050600190039060005260206000200160009091909190916101000a81548173ffffffffffffffffffffffffffffffffffffffff021916908373ffffffffffffffffffffffffffffffffffffffff1602179055505b34600260003373ffffffffffffffffffffffffffffffffffffffff1673ffffffffffffffffffffffffffffffffffffffff168152602001908152602001600020600001600082825461042f9190610850565b92505081905550565b600080fd5b600073ffffffffffffffffffffffffffffffffffffffff82169050919050565b60006104688261043d565b9050919050565b6104788161045d565b811461048357600080fd5b50565b6000813590506104958161046f565b92915050565b6000602082840312156104b1576104b0610438565b5b60006104bf84828501610486565b91505092915050565b6000819050919050565b6104db816104c8565b82525050565b60006020820190506104f660008301846104d2565b92915050565b60006105078261043d565b9050919050565b610517816104fc565b811461052257600080fd5b50565b6000813590506105348161050e565b92915050565b610543816104c8565b811461054e57600080fd5b50565b6000813590506105608161053a565b92915050565b6000806040838503121561057d5761057c610438565b5b600061058b85828601610525565b925050602061059c85828601610551565b9150509250929050565b600081519050919050565b600082825260208201905092915050565b6000819050602082019050919050565b6105db8161045d565b82525050565b60006105ed83836105d2565b60208301905092915050565b6000602082019050919050565b6000610611826105a6565b61061b81856105b1565b9350610626836105c2565b8060005b8381101561065757815161063e88826105e1565b9750610649836105f9565b92505060018101905061062a565b5085935050505092915050565b6000602082019050818103600083015261067e8184610606565b905092915050565b600082825260208201905092915050565b7f4e6f626f64792062757420746865206f776e65722063616e20646f2069740000600082015250565b60006106cd601e83610686565b91506106d882610697565b602082019050919050565b600060208201905081810360008301526106fc816106c0565b9050919050565b600081905092915050565b50565b600061071e600083610703565b91506107298261070e565b600082019050919050565b600061073f82610711565b9150819050919050565b7f5472616e73666572206661696c65642e00000000000000000000000000000000600082015250565b600061077f601083610686565b915061078a82610749565b602082019050919050565b600060208201905081810360008301526107ae81610772565b9050919050565b7f30212041726520796f7520737572653f00000000000000000000000000000000600082015250565b60006107eb601083610686565b91506107f6826107b5565b602082019050919050565b6000602082019050818103600083015261081a816107de565b9050919050565b7f4e487b7100000000000000000000000000000000000000000000000000000000600052601160045260246000fd5b600061085b826104c8565b9150610866836104c8565b9250827fffffffffffffffffffffffffffffffffffffffffffffffffffffffffffffffff0382111561089b5761089a610821565b5b82820190509291505056fea26469706673582212205055a3dc42c9ab4adf2afd738ed3192f21e82961c62c06556a3c019179d76eaa64736f6c634300080b0033",
  "immutableReferences": {},
  "source": "// SPDX-License-Identifier: MIT\npragma solidity ^0.8.4;\n\ncontract Crowdfunding {\n address private owner;\n address[] private all_addresses;\n\n struct DonatorValue {\n  uint256 value;\n }\n\n mapping (address => DonatorValue) donators;\n\n constructor() {\n  owner = msg.sender;\n }\n\n function donate() public payable {\n  require(msg.value > 0, \"0! Are you sure?\");\n\n  if (donators[msg.sender].value == 0)\n   all_addresses.push(msg.sender);\n  donators[msg.sender].value += msg.value;\n }\n\n function transferOut(address payable addrOut, uint256 _value) external payable {\n  require(msg.sender == owner, \"Nobody but the owner can do it\");\n  (bool success, ) = addrOut.call{value: _value}(\"\");\n  require(success, \"Transfer failed.\");\n }\n\n function getAllDonators() public view returns (address[] memory) {\n  return all_addresses;\n }\n\n function getDonationsOfAddess(address addr) public view returns (uint256) {\n    return donators[addr].value;\n }\n\n}",
  "sourcePath": "/home/anna/projects/solidno/crowdfunding/contracts/Crowdfunding.sol",
  "compiler": {
    "name": "solc",
    "version": "0.8.11+commit.d7f03943.Emscripten.clang"
  },
  "schemaVersion": "3.4.5",
  "updatedAt": "2022-03-08T23:37:33.525Z",
  "devdoc": {
    "kind": "dev",
    "methods": {},
    "version": 1
  },
  "userdoc": {
    "kind": "user",
    "methods": {},
    "version": 1
  }
}